{
  "contractName": "Deployer",
  "abi": [
    {
      "constant": false,
      "inputs": [],
      "name": "destroy",
      "outputs": [],
      "payable": false,
      "stateMutability": "nonpayable",
      "type": "function"
    },
    {
      "constant": true,
      "inputs": [],
      "name": "owner",
      "outputs": [
        {
          "internalType": "address payable",
          "name": "",
          "type": "address"
        }
      ],
      "payable": false,
      "stateMutability": "view",
      "type": "function"
    },
    {
      "constant": false,
      "inputs": [
        {
          "internalType": "address payable",
          "name": "newOwner",
          "type": "address"
        }
      ],
      "name": "transferOwnership",
      "outputs": [],
      "payable": false,
      "stateMutability": "nonpayable",
      "type": "function"
    },
    {
      "constant": false,
      "inputs": [
        {
          "internalType": "address payable",
          "name": "_recipient",
          "type": "address"
        }
      ],
      "name": "destroyAndSend",
      "outputs": [],
      "payable": false,
      "stateMutability": "nonpayable",
      "type": "function"
    },
    {
      "inputs": [
        {
          "internalType": "address",
          "name": "_ethDeployer",
          "type": "address"
        },
        {
          "internalType": "address",
          "name": "_erc20Deployer",
          "type": "address"
        }
      ],
      "payable": false,
      "stateMutability": "nonpayable",
      "type": "constructor"
    },
    {
      "anonymous": false,
      "inputs": [
        {
          "indexed": true,
          "internalType": "address",
          "name": "deployedAddress",
          "type": "address"
        },
        {
          "indexed": true,
          "internalType": "address",
          "name": "deployer",
          "type": "address"
        }
      ],
      "name": "NewParty",
      "type": "event"
    },
    {
      "anonymous": false,
      "inputs": [
        {
          "indexed": true,
          "internalType": "address",
          "name": "previousOwner",
          "type": "address"
        },
        {
          "indexed": true,
          "internalType": "address",
          "name": "newOwner",
          "type": "address"
        }
      ],
      "name": "OwnershipTransferred",
      "type": "event"
    },
    {
      "constant": false,
      "inputs": [
        {
          "internalType": "string",
          "name": "_name",
          "type": "string"
        },
        {
          "internalType": "uint256",
          "name": "_deposit",
          "type": "uint256"
        },
        {
          "internalType": "uint256",
          "name": "_limitOfParticipants",
          "type": "uint256"
        },
        {
          "internalType": "uint256",
          "name": "_coolingPeriod",
          "type": "uint256"
        },
        {
          "internalType": "address",
          "name": "_tokenAddress",
          "type": "address"
        }
      ],
      "name": "deploy",
      "outputs": [],
      "payable": false,
      "stateMutability": "nonpayable",
      "type": "function"
    }
  ],
  "bytecode": "0x608060405234801561001057600080fd5b506040516104ff3803806104ff8339818101604052604081101561003357600080fd5b508051602090910151600080546001600160a01b03199081163317909155600180546001600160a01b039485169083161790556002805493909216921691909117905561047a806100856000396000f3fe608060405234801561001057600080fd5b50600436106100575760003560e01c806383197ef01461005c5780638acc1774146100665780638da5cb5b146100f1578063f2fde38b14610115578063f5074f411461013b575b600080fd5b610064610161565b005b610064600480360360a081101561007c57600080fd5b81019060208101813564010000000081111561009757600080fd5b8201836020820111156100a957600080fd5b803590602001918460018302840111640100000000831117156100cb57600080fd5b9193509150803590602081013590604081013590606001356001600160a01b0316610186565b6100f961038e565b604080516001600160a01b039092168252519081900360200190f35b6100646004803603602081101561012b57600080fd5b50356001600160a01b031661039d565b6100646004803603602081101561015157600080fd5b50356001600160a01b0316610422565b6000546001600160a01b0316331461017857600080fd5b6000546001600160a01b0316ff5b60006001600160a01b0382161561027557600254604051632be72cd560e01b815260248101879052604481018690526064810185905233608482018190526001600160a01b0385811660a484015260c06004840190815260c484018b9052931692632be72cd5928b928b928b928b928b9290918b9190819060e401898980828437600081840152601f19601f82011690508083019250505098505050505050505050602060405180830381600087803b15801561024257600080fd5b505af1158015610256573d6000803e3d6000fd5b505050506040513d602081101561026c57600080fd5b5051905061034f565b600154604051632be72cd560e01b81526024810187905260448101869052606481018590523360848201819052600060a4830181905260c06004840190815260c484018b90526001600160a01b0390941693632be72cd5938c938c938c938c938c93929190819060e401898980828437600081840152601f19601f82011690508083019250505098505050505050505050602060405180830381600087803b15801561032057600080fd5b505af1158015610334573d6000803e3d6000fd5b505050506040513d602081101561034a57600080fd5b505190505b60405133906001600160a01b038316907f57d380dbcddc47e0e592a9fd9ac9ab20c72572944143ef72b0e201536e0174f990600090a350505050505050565b6000546001600160a01b031681565b6000546001600160a01b031633146103b457600080fd5b6001600160a01b0381166103c757600080fd5b600080546040516001600160a01b03808516939216917f8be0079c531659141344cd1fd0a4f28419497f9722a3daafe3b4186f6b6457e091a3600080546001600160a01b0319166001600160a01b0392909216919091179055565b6000546001600160a01b0316331461043957600080fd5b806001600160a01b0316fffea265627a7a72315820262c91a4c6343754bc1b356b3db39af97c9cce57f06623a305ec84572672c61d64736f6c634300050b0032",
  "source": "pragma solidity ^0.5.11;\n\nimport './zeppelin/lifecycle/Destructible.sol';\nimport './DeployerInterface.sol';\n\n/**\n * This is responsible for deploying a new Party.\n */\n\ncontract Deployer is Destructible {\n    DeployerInterface ethDeployer;\n    DeployerInterface erc20Deployer;\n\n    constructor(address _ethDeployer, address _erc20Deployer) public {\n        ethDeployer = DeployerInterface(_ethDeployer);\n        erc20Deployer = DeployerInterface(_erc20Deployer);\n    }\n    /**\n     * Notify that a new party has been deployed.\n     */\n    event NewParty(\n        address indexed deployedAddress,\n        address indexed deployer\n    );\n\n    /**\n     * Deploy a new contract.\n     * @param _name The name of the event\n     * @param _deposit The amount each participant deposits. The default is set to 0.02 Ether. The amount cannot be changed once deployed.\n     * @param _limitOfParticipants The number of participant. The default is set to 20. The number can be changed by the owner of the event.\n     * @param _coolingPeriod The period participants should withdraw their deposit after the event ends. After the cooling period, the event owner can claim the remining deposits.\n     * @param _tokenAddress If this address is passed, deploy ERC20Token version\n     */\n    function deploy(\n        string calldata _name,\n        uint256 _deposit,\n        uint _limitOfParticipants,\n        uint _coolingPeriod,\n        address _tokenAddress\n    ) external {\n        Conference c;\n        if(_tokenAddress != address(0)){\n            c = erc20Deployer.deploy(\n                _name,\n                _deposit,\n                _limitOfParticipants,\n                _coolingPeriod,\n                msg.sender,\n                _tokenAddress\n            );\n        }else{\n            c = ethDeployer.deploy(\n                _name,\n                _deposit,\n                _limitOfParticipants,\n                _coolingPeriod,\n                msg.sender,\n                address(0)\n            );\n        }\n        emit NewParty(address(c), msg.sender);\n    }\n}\n",
  "sourcePath": "/Users/admin/Documents/GitHub/hackathon/EventRegistration/contracts/Deployer.sol",
  "compiler": {
    "name": "solc",
    "version": "0.5.11+commit.c082d0b4.Emscripten.clang"
  },
  "schemaVersion": "3.0.19",
  "updatedAt": "2019-12-16T20:00:38.159Z",
  "networkType": "ethereum",
  "devdoc": {
    "methods": {
      "deploy(string,uint256,uint256,uint256,address)": {
        "params": {
          "_coolingPeriod": "The period participants should withdraw their deposit after the event ends. After the cooling period, the event owner can claim the remining deposits.",
          "_deposit": "The amount each participant deposits. The default is set to 0.02 Ether. The amount cannot be changed once deployed.",
          "_limitOfParticipants": "The number of participant. The default is set to 20. The number can be changed by the owner of the event.",
          "_name": "The name of the event",
          "_tokenAddress": "If this address is passed, deploy ERC20Token version"
        }
      },
      "destroy()": {
        "details": "Transfers the current balance to the owner and terminates the contract."
      },
      "transferOwnership(address)": {
        "details": "Allows the current owner to transfer control of the contract to a newOwner.",
        "params": {
          "newOwner": "The address to transfer ownership to."
        }
      }
    }
  },
  "userdoc": {
    "methods": {
      "deploy(string,uint256,uint256,uint256,address)": {
        "notice": "Deploy a new contract."
      }
    },
    "notice": "This is responsible for deploying a new Party."
  }
}