{
  "contractName": "EthDeployer",
  "abi": [
    {
      "constant": false,
      "inputs": [
        {
          "internalType": "string",
          "name": "_name",
          "type": "string"
        },
        {
          "internalType": "uint256",
          "name": "_deposit",
          "type": "uint256"
        },
        {
          "internalType": "uint256",
          "name": "_limitOfParticipants",
          "type": "uint256"
        },
        {
          "internalType": "uint256",
          "name": "_coolingPeriod",
          "type": "uint256"
        },
        {
          "internalType": "address payable",
          "name": "_ownerAddress",
          "type": "address"
        },
        {
          "internalType": "address",
          "name": "",
          "type": "address"
        }
      ],
      "name": "deploy",
      "outputs": [
        {
          "internalType": "contract Conference",
          "name": "c",
          "type": "address"
        }
      ],
      "payable": false,
      "stateMutability": "nonpayable",
      "type": "function"
    }
  ],
  "bytecode": "0x608060405234801561001057600080fd5b50612082806100206000396000f3fe608060405234801561001057600080fd5b506004361061002b5760003560e01c80632be72cd514610030575b600080fd5b6100c3600480360360c081101561004657600080fd5b81019060208101813564010000000081111561006157600080fd5b82018360208201111561007357600080fd5b8035906020019184600183028401116401000000008311171561009557600080fd5b91935091508035906020810135906040810135906001600160a01b03606082013581169160800135166100df565b604080516001600160a01b039092168252519081900360200190f35b60008787878787876040516100f390610173565b6020810185905260408101849052606081018390526001600160a01b038216608082015260a080825281018690528060c081018888808284376000838201819052604051601f909201601f19169093018190039a509850909650505050505050f080158015610166573d6000803e3d6000fd5b5098975050505050505050565b611ecd806101818339019056fe60806040523480156200001157600080fd5b5060405162001ecd38038062001ecd833981810160405260a08110156200003757600080fd5b81019080805160405193929190846401000000008211156200005857600080fd5b9083019060208201858111156200006e57600080fd5b82516401000000008111828201881017156200008957600080fd5b82525081516020918201929091019080838360005b83811015620000b85781810151838201526020016200009e565b50505050905090810190601f168015620000e65780820380516001836020036101000a031916815260200191505b5060409081526020820151908201516060830151608090930151600080546001600160a01b03191633179055919450925084848484846001600160a01b0381166200019257604080517f08c379a000000000000000000000000000000000000000000000000000000000815260206004820152601960248201527f6f776e6572206164647265737320697320726571756972656400000000000000604482015290519081900360640190fd5b600080546001600160a01b0319166001600160a01b0383161790558451620001c2906002906020880190620001dd565b50506003929092556004556009555062000282945050505050565b828054600181600116156101000203166002900490600052602060002090601f016020900481019282601f106200022057805160ff191683800117855562000250565b8280016001018555821562000250579182015b828111156200025057825182559160200191906001019062000233565b506200025e92915062000262565b5090565b6200027f91905b808211156200025e576000815560010162000269565b90565b611c3b80620002926000396000f3fe6080604052600436106101f95760003560e01c80636ded82f81161010d578063a07f3a56116100a0578063d0e30db01161006f578063d0e30db014610805578063df48f1e11461081a578063e17e082b14610844578063ea8a1af0146108bf578063f2fde38b146108d4576101f9565b8063a07f3a5614610760578063ad7a672f14610793578063c2a2ce06146107a8578063c3c5a547146107d2576101f9565b80639989a5ae116100dc5780639989a5ae146106e25780639a82a09a1461070c5780639b25cacb146107215780639d76ea581461074b576101f9565b80636ded82f8146106705780637238f361146106a35780638da5cb5b146106b85780639328beee146106cd576101f9565b806324d7806c116101905780633d6a71e41161015f5780633d6a71e4146105a157806352efea6e146105b65780635353a2d8146105cb5780636b46c8c3146106465780636d006ae81461065b576101f9565b806324d7806c146104df5780632de40ce31461051257806331ae450b146105275780633ccfd60b1461058c576101f9565b806312fa6feb116101cc57806312fa6feb146103ba57806314bfd6d0146103e35780631aa3a008146104295780631e3c935214610431576101f9565b80630191dc92146101fe57806305f203d91461022557806306fdde03146102d557806309e69ede1461035f575b600080fd5b34801561020a57600080fd5b50610213610907565b60408051918252519081900360200190f35b34801561023157600080fd5b506102d36004803603602081101561024857600080fd5b810190602081018135600160201b81111561026257600080fd5b82018360208201111561027457600080fd5b803590602001918460208302840111600160201b8311171561029557600080fd5b91908080602002602001604051908101604052809392919081815260200183836020028082843760009201919091525092955061090e945050505050565b005b3480156102e157600080fd5b506102ea610a8e565b6040805160208082528351818301528351919283929083019185019080838360005b8381101561032457818101518382015260200161030c565b50505050905090810190601f1680156103515780820380516001836020036101000a031916815260200191505b509250505060405180910390f35b34801561036b57600080fd5b506103926004803603602081101561038257600080fd5b50356001600160a01b0316610b19565b604080519384526001600160a01b039092166020840152151582820152519081900360600190f35b3480156103c657600080fd5b506103cf610b47565b604080519115158252519081900360200190f35b3480156103ef57600080fd5b5061040d6004803603602081101561040657600080fd5b5035610b50565b604080516001600160a01b039092168252519081900360200190f35b6102d3610b77565b34801561043d57600080fd5b506102d36004803603602081101561045457600080fd5b810190602081018135600160201b81111561046e57600080fd5b82018360208201111561048057600080fd5b803590602001918460208302840111600160201b831117156104a157600080fd5b919080806020026020016040519081016040528093929190818152602001838360200280828437600092019190915250929550610d3b945050505050565b3480156104eb57600080fd5b506103cf6004803603602081101561050257600080fd5b50356001600160a01b0316610e2d565b34801561051e57600080fd5b50610213610ea8565b34801561053357600080fd5b5061053c610eae565b60408051602080825283518183015283519192839290830191858101910280838360005b83811015610578578181015183820152602001610560565b505050509050019250505060405180910390f35b34801561059857600080fd5b506102d3610f10565b3480156105ad57600080fd5b50610213611110565b3480156105c257600080fd5b506102d3611116565b3480156105d757600080fd5b506102d3600480360360208110156105ee57600080fd5b810190602081018135600160201b81111561060857600080fd5b82018360208201111561061a57600080fd5b803590602001918460018302840111600160201b8311171561063b57600080fd5b50909250905061126e565b34801561065257600080fd5b5061021361131e565b34801561066757600080fd5b50610213611324565b34801561067c57600080fd5b506103cf6004803603602081101561069357600080fd5b50356001600160a01b031661132a565b3480156106af57600080fd5b50610213611369565b3480156106c457600080fd5b5061040d61136f565b3480156106d957600080fd5b5061021361137e565b3480156106ee57600080fd5b506102d36004803603602081101561070557600080fd5b5035611384565b34801561071857600080fd5b506103cf611492565b34801561072d57600080fd5b5061040d6004803603602081101561074457600080fd5b50356114a0565b34801561075757600080fd5b5061040d6114bb565b34801561076c57600080fd5b506103cf6004803603602081101561078357600080fd5b50356001600160a01b03166114c0565b34801561079f57600080fd5b50610213611544565b3480156107b457600080fd5b506102d3600480360360208110156107cb57600080fd5b5035611549565b3480156107de57600080fd5b506103cf600480360360208110156107f557600080fd5b50356001600160a01b03166115ed565b34801561081157600080fd5b50610213611610565b34801561082657600080fd5b506102136004803603602081101561083d57600080fd5b5035611616565b34801561085057600080fd5b506102d36004803603602081101561086757600080fd5b810190602081018135600160201b81111561088157600080fd5b82018360208201111561089357600080fd5b803590602001918460208302840111600160201b831117156108b457600080fd5b509092509050611634565b3480156108cb57600080fd5b506102d361187c565b3480156108e057600080fd5b506102d3600480360360208110156108f757600080fd5b50356001600160a01b0316611966565b6001545b90565b61091733610e2d565b610958576040805162461bcd60e51b815260206004820152600d60248201526c36bab9ba1031329030b236b4b760991b604482015290519081900360640190fd5b60005b8151811015610a8a5760005b600154811015610a815782828151811061097d57fe5b60200260200101516001600160a01b03166001828154811061099b57fe5b6000918252602090912001546001600160a01b03161415610a79576001805460001981019081106109c857fe5b600091825260209091200154600180546001600160a01b0390921691839081106109ee57fe5b600091825260209091200180546001600160a01b0319166001600160a01b03929092169190911790556001805490610a2a906000198301611a75565b50828281518110610a3757fe5b60200260200101516001600160a01b03167f631ff1c4e1a02c54b480a34b810e03bcee61fe38efcb243930a7f820914923e260405160405180910390a2610a81565b600101610967565b5060010161095b565b5050565b6002805460408051602060018416156101000260001901909316849004601f81018490048402820184019092528181529291830182828015610b115780601f10610ae657610100808354040283529160200191610b11565b820191906000526020600020905b815481529060010190602001808311610af457829003601f168201915b505050505081565b600c60205260009081526040902080546001909101546001600160a01b03811690600160a01b900460ff1683565b60065460ff1681565b60018181548110610b5d57fe5b6000918252602090912001546001600160a01b0316905081565b60065460ff1615610bbf576040805162461bcd60e51b815260206004820152600d60248201526c185b1c9958591e48195b991959609a1b604482015290519081900360640190fd5b60045460055410610c17576040805162461bcd60e51b815260206004820152601960248201527f7061727469636970616e74206c696d6974207265616368656400000000000000604482015290519081900360640190fd5b610c20336115ed565b15610c67576040805162461bcd60e51b8152602060048201526012602482015271185b1c9958591e481c9959da5cdd195c995960721b604482015290519081900360640190fd5b610c73336003546119eb565b6005805460019081018083556000908152600d602090815260408083208054336001600160a01b03199182168117909255825160608101845287548152808501838152818501878152848852600c8752968590209151825551960180549551959091166001600160a01b039096169590951760ff60a01b1916600160a01b9415159490940293909317909355925482519182529281019290925280517f4d509eaf411f241400f13f5abf136c29e58fc43af0f27f87a1c1c9767795d03f9281900390910190a1565b610d4433610e2d565b610d85576040805162461bcd60e51b815260206004820152600d60248201526c36bab9ba1031329030b236b4b760991b604482015290519081900360640190fd5b60005b8151811015610a8a576001828281518110610d9f57fe5b60209081029190910181015182546001810184556000938452919092200180546001600160a01b0319166001600160a01b039092169190911790558151829082908110610de857fe5b60200260200101516001600160a01b03167f1c4e23de8d72c94b22992bd4d7b6786b215ba876af214ff63e6a0ca38fc97af460405160405180910390a2600101610d88565b600080546001600160a01b0383811691161415610e4c57506001610ea3565b60005b600154811015610e9d57826001600160a01b031660018281548110610e7057fe5b6000918252602090912001546001600160a01b03161415610e95576001915050610ea3565b600101610e4f565b50600090505b919050565b60055481565b60606001805480602002602001604051908101604052809291908181526020018280548015610f0657602002820191906000526020600020905b81546001600160a01b03168152600190910190602001808311610ee8575b5050505050905090565b60065460ff16610f57576040805162461bcd60e51b815260206004820152600d60248201526c1b9bdd081e595d08195b991959609a1b604482015290519081900360640190fd5b6000600a5411610f9c576040805162461bcd60e51b815260206004820152600b60248201526a07061796f757420697320360ac1b604482015290519081900360640190fd5b336000818152600c60205260409020600181015490916001600160a01b0390911614611002576040805162461bcd60e51b815260206004820152601060248201526f666f7262696464656e2061636365737360801b604482015290519081900360640190fd5b600654610100900460ff168061101c575061101c336114c0565b6110575760405162461bcd60e51b8152600401808060200182810382526028815260200180611b906028913960400191505060405180910390fd5b6001810154600160a01b900460ff16156110ac576040805162461bcd60e51b815260206004820152601160248201527030b63932b0b23c903bb4ba34323930bbb760791b604482015290519081900360640190fd5b60018101805460ff60a01b1916600160a01b179055600a546110cf903390611a3f565b600a5460408051338152602081019290925280517f5dba113b49cfa7c90315e8e604e6b506f7abcb909b01dcb19ec39005086e68fc9281900390910190a150565b60075481565b61111f33610e2d565b611160576040805162461bcd60e51b815260206004820152600d60248201526c36bab9ba1031329030b236b4b760991b604482015290519081900360640190fd5b60065460ff166111a7576040805162461bcd60e51b815260206004820152600d60248201526c1b9bdd081e595d08195b991959609a1b604482015290519081900360640190fd5b600954600754014211611201576040805162461bcd60e51b815260206004820152601760248201527f7374696c6c20696e20636f6f6c696e6720706572696f64000000000000000000604482015290519081900360640190fd5b600061120b611544565b600054909150611224906001600160a01b031682611a3f565b600054604080516001600160a01b0390921682526020820183905280517f61355a34c3bc2e502a24eba7ad2fb0fd0d05c4f71de8cb041fbe39cd3649665e9281900390910190a150565b61127733610e2d565b6112b8576040805162461bcd60e51b815260206004820152600d60248201526c36bab9ba1031329030b236b4b760991b604482015290519081900360640190fd5b6005541561130d576040805162461bcd60e51b815260206004820152601e60248201527f70656f706c65206861766520616c726561647920726567697374657265640000604482015290519081900360640190fd5b61131960028383611a99565b505050565b600a5481565b60045481565b6000611335826115ed565b801561136357506001600160a01b0382166000908152600c6020526040902060010154600160a01b900460ff165b92915050565b60085481565b6000546001600160a01b031681565b60095481565b61138d33610e2d565b6113ce576040805162461bcd60e51b815260206004820152600d60248201526c36bab9ba1031329030b236b4b760991b604482015290519081900360640190fd5b60065460ff1615611416576040805162461bcd60e51b815260206004820152600d60248201526c185b1c9958591e48195b991959609a1b604482015290519081900360640190fd5b8060055411156114575760405162461bcd60e51b8152600401808060200182810382526024815260200180611b6c6024913960400191505060405180910390fd5b60048190556040805182815290517fe7fc560b4d0182164d7320ccef844dcc3375441f095669f48dbd47915ebbde689181900360200190a150565b600654610100900460ff1681565b600d602052600090815260409020546001600160a01b031681565b600090565b60006114cb826115ed565b15806114da575060065460ff16155b156114e757506000610ea3565b6001600160a01b0382166000908152600c602052604081208054909160001990910190600b61010083048154811061151b57fe5b90600052602060002001549050610100828161153357fe5b0660020a1615159250610ea3915050565b303190565b61155233610e2d565b611593576040805162461bcd60e51b815260206004820152600d60248201526c36bab9ba1031329030b236b4b760991b604482015290519081900360640190fd5b600554156115e8576040805162461bcd60e51b815260206004820152601e60248201527f70656f706c65206861766520616c726561647920726567697374657265640000604482015290519081900360640190fd5b600355565b6001600160a01b039081166000908152600c602052604090206001015416151590565b60035481565b600b818154811061162357fe5b600091825260209091200154905081565b61163d33610e2d565b61167e576040805162461bcd60e51b815260206004820152600d60248201526c36bab9ba1031329030b236b4b760991b604482015290519081900360640190fd5b60065460ff16156116c6576040805162461bcd60e51b815260206004820152600d60248201526c185b1c9958591e48195b991959609a1b604482015290519081900360640190fd5b60055461010082029081108015906116e357506101006005548203105b61171e5760405162461bcd60e51b8152600401808060200182810382526021815260200180611bb86021913960400191505060405180910390fd5b61172a600b8484611b17565b506006805460ff19166001179055426007556000805b600b54811015611788576000600b828154811061175957fe5b906000526020600020015490505b801561177f5760019290920191600019810116611767565b50600101611740565b506005548111156117ca5760405162461bcd60e51b815260040180806020018281038252602e815260200180611bd9602e913960400191505060405180910390fd5b600881905580156117ec576008546117e0611544565b816117e757fe5b04600a555b7f61ed07cde244eab019f88846ecbec7e89ca54396f1f2ee4d1a82785e4c8bbf1d600b600a546007546040518080602001848152602001838152602001828103825285818154815260200191508054801561186657602002820191906000526020600020905b815481526020019060010190808311611852575b505094505050505060405180910390a150505050565b61188533610e2d565b6118c6576040805162461bcd60e51b815260206004820152600d60248201526c36bab9ba1031329030b236b4b760991b604482015290519081900360640190fd5b60065460ff161561190e576040805162461bcd60e51b815260206004820152600d60248201526c185b1c9958591e48195b991959609a1b604482015290519081900360640190fd5b600354600a556006805460ff1961ff00199091166101001716600117905542600781905560408051918252517fe933406ce445ea24d84ca4529e514adc8926e62cdc8b5a67c568c9fd578f1a8a9181900360200190a1565b6000546001600160a01b0316331461197d57600080fd5b6001600160a01b03811661199057600080fd5b600080546040516001600160a01b03808516939216917f8be0079c531659141344cd1fd0a4f28419497f9722a3daafe3b4186f6b6457e091a3600080546001600160a01b0319166001600160a01b0392909216919091179055565b803414610a8a576040805162461bcd60e51b815260206004820152601e60248201527f6d7573742073656e64206578616374206465706f73697420616d6f756e740000604482015290519081900360640190fd5b6040516001600160a01b0383169082156108fc029083906000818181858888f19350505050158015611319573d6000803e3d6000fd5b81548183558181111561131957600083815260209020611319918101908301611b51565b828054600181600116156101000203166002900490600052602060002090601f016020900481019282601f10611ada5782800160ff19823516178555611b07565b82800160010185558215611b07579182015b82811115611b07578235825591602001919060010190611aec565b50611b13929150611b51565b5090565b828054828255906000526020600020908101928215611b075791602002820182811115611b07578235825591602001919060010190611aec565b61090b91905b80821115611b135760008155600101611b5756fe63616e6e6f74206c6f776572207468616e20616c726561647920726567697374657265646576656e74207374696c6c20616374697665206f7220796f7520646964206e6f7420617474656e64696e636f7272656374206e6f2e206f66206269746d6170732070726f766964656473686f756c64206e6f742068617665206d6f726520617474656e64656573207468616e2072656769737465726564a265627a7a723158205abc2ae074d40e6ead1c6f58189136282372bfe1d56453d38ecdc17782a7dae664736f6c634300050b0032a265627a7a723158205a1513638e831c2139318c5449cc70c3eda68dda4418243024e669da0245940e64736f6c634300050b0032",
  "source": "pragma solidity ^0.5.11;\nimport './EthConference.sol';\nimport './Conference.sol';\nimport './DeployerInterface.sol';\n\ncontract EthDeployer is DeployerInterface{\n    function deploy(\n        string calldata _name,\n        uint256 _deposit,\n        uint _limitOfParticipants,\n        uint _coolingPeriod,\n        address payable _ownerAddress,\n        address /* _tokenAddress */\n    )external returns(Conference c){\n        c = new EthConference(\n            _name,\n            _deposit,\n            _limitOfParticipants,\n            _coolingPeriod,\n            _ownerAddress\n        );\n    }   \n}\n",
  "sourcePath": "/Users/admin/Documents/GitHub/hackathon/EventRegistration/contracts/EthDeployer.sol",
  "compiler": {
    "name": "solc",
    "version": "0.5.11+commit.c082d0b4.Emscripten.clang"
  },
  "schemaVersion": "3.0.19",
  "updatedAt": "2019-12-16T20:00:38.161Z",
  "networkType": "ethereum",
  "devdoc": {
    "methods": {}
  },
  "userdoc": {
    "methods": {}
  }
}